:020000040800F2
:1000000000C0002041100008E9090008F1090008BB
:10001000F9090008010A0008090A000800000000A8
:10002000000000000000000000000000110A0008AD
:100030001D0A000800000000290A0008350A00080F
:10004000891000088910000889100008891000082C
:10005000891000088910000889100008891000081C
:10006000891000088910000889100008891000080C
:100070008910000889100008410A0008891000084A
:1000800089100008891000088910000889100008EC
:1000900089100008891000088910000889100008DC
:1000A00089100008891000088910000889100008CC
:1000B00089100008891000088910000889100008BC
:1000C00089100008891000088910000889100008AC
:1000D00089100008550A00088910000889100008D6
:1000E000891000088910000889100008891000088C
:1000F000891000088910000889100008891000087C
:10010000891000088910000889100008891000086B
:10011000891000088910000889100008891000085B
:10012000891000088910000889100008891000084B
:1001300000000000000000000000000000000000BF
:1001400000000000000000000000000000000000AF
:10015000000000000000000000000000000000009F
:10016000000000000000000000000000000000008F
:10017000000000000000000000000000000000007F
:10018000000000000000000000000000000000006F
:10019000000000000000000000000000000000005F
:1001A000000000000000000000000000000000004F
:1001B000000000000000000000000000000000003F
:1001C000000000000000000000000000000000002F
:1001D000000000000000000000000000000000001F
:0401E0005FF8E0F1F3
:1001E40010B5054C237833B9044B13B10448AFF36D
:1001F40000800123237010BD1000002000000000C7
:10020400F040000808B5034B1BB103490348AFF3A2
:10021400008008BD0000000014000020F040000829
:1002240080B500AF094B1B780133DAB2074B1A7063
:10023400064B1B78142B07D9044B00221A704FF479
:100244000051034801F06BFE00BF80BD2C0000206C
:100254000010014080B500AF322000F0B3F800F088
:100264006DF900F073FA00BF80BD000080B582B064
:1002740000AF012000F018F90346002B5CD03220B7
:1002840000F0A0F8324B1B78184600F06DFA314BA1
:100294001B6801332F4A136000237B602D4B1B68BE
:1002A400012B1AD14FF4FA637B607B681BB21946A9
:1002B400002000F0B7F97B681BB21946012000F05A
:1002C400B1F97B681BB21946022000F0ABF97B68D8
:1002D4001BB21946032000F0A5F91E4B1B68022B24
:1002E40002D1002000F052F91A4B1B68032B19D1DC
:1002F400194B7B607B681BB21946002000F092F911
:100304007B681BB21946012000F08CF97B681BB294
:100314001946022000F086F97B681BB219460320B7
:1003240000F080F90B4B1B68042B05D1094B00220C
:100334001A60012000F02AF9FFF772FF00F082F83A
:100344000A2000F003FF00BF0837BD4680BD00BF90
:10035400000000203000002030F8FFFF80B483B09C
:1003640000AF0346FB80044AFB88138000BF0C37B0
:10037400BD4680BC704700BF3400002080B400AF8D
:10038400024B1B881846BD4680BC704734000020D1
:1003940080B483B000AF0346FB71044AFB79137049
:1003A40000BF0C37BD4680BC704700BF360000203C
:1003B40080B400AF024B1B781846BD4680BC704722
:1003C4003600002080B582B000AF0346FB80FB8876
:1003D400012B0BD10120FFF7DBFF0020FFF7BEFF4D
:1003E40001222021154801F082FD22E0FB88002B28
:1003F4000BD10020FFF7CCFF0020FFF7AFFF002256
:1004040020210E4801F073FD13E0FB88092B10D95D
:100414000220FFF7BDFFFB88094AA2FB0323DB0888
:100424009BB21846FFF79AFF01222021034801F0EE
:100434005EFD00BF0837BD4680BD00BF001001400F
:10044400CDCCCCCC80B500AFFFF7B2FF0346022B76
:1004540013D1FFF793FF0346002B06D0084B1B88EC
:10046400013B9AB2064B1A8007E00022202105487E
:1004740001F03DFD0020FFF78BFF00BF80BD00BFF2
:10048400340000200010014080B500AF042105486D
:1004940001F016FD0346002B01D1012300E00023E7
:1004A400184680BD0014014080B582B000AF0346F9
:1004B400FB71FFF7E9FF0346012B0ED10E4B1B889E
:1004C4001A46FB7901335B009A4209DA0A4B1B880E
:1004D40001339AB2084B1A8002E0074B00221A80BB
:1004E400054B1B88022B01D1012300E00023184691
:1004F4000837BD4680BD00BF3800002080B483B0FB
:1005040000AF0346FB80B7F90630002B05DDFB88FE
:1005140003F5C8639BB21BB20AE0B7F90630002B9F
:1005240005DAFB88A3F5C8639BB21BB200E0002385
:1005340018460C37BD4680BC7047000080B500AF3C
:100544000021104802F0C6F904210E4802F0DEFE34
:1005540008210C4802F0DAFE0C210A4802F0BAF92C
:100564000021094802F0B6F90421074802F0B2F963
:100574000821054802F0AEF90C21034802F0AAF95B
:1005840000BF80BD3C0000208400002080B483B004
:1005940000AF0346FB71FB79002B01D00123FB71F3
:1005A400FB794FF4616203FB02F21C4B5A63FB7943
:1005B4004FF4616203FB02F2184B9A63FB794FF428
:1005C400616203FB02F2154BDA63FB794FF461625B
:1005D40003FB02F2114B1A64FB794FF4616203FBD3
:1005E40002F20F4B1A64FB794FF4616203FB02F2CF
:1005F4000B4B5A63FB794FF4616203FB02F2084B25
:100604009A63FB794FF4616203FB02F2044BDA63F1
:1006140000BF0C37BD4680BC704700BF00340140AA
:10062400002C014080B584B000AF03460A46FB713C
:100634001346BB80B7F904301846FFF75FFF034643
:10064400FB81B7F90E30B3F5616F02DB4FF46163E0
:10065400FB81B7F90E3013F5616F02DC4FF2F01332
:10066400FB81FB79032B67D801A252F823F000BF6A
:1006740085060008B7060008E90600081307000805
:10068400FB895B429BB2FB81B7F90E30002B07DB81
:100694002C4AB7F90E3053632A4B00229A634CE07C
:1006A400284B00225A63B7F90E305A42254B9A63FD
:1006B40043E0FB895B429BB2FB81B7F90E30002B10
:1006C40007DB204AB7F90E30D3631E4B00221A64AD
:1006D40033E01C4B0022DA63B7F90E305A42194B4F
:1006E4001A642AE0B7F90E30002B07DB164AB7F973
:1006F4000E301364144B00225A631EE0124B002286
:100704001A64B7F90E305A420F4B5A6315E0B7F921
:100714000E30002B07DB0C4AB7F90E3093630A4BFB
:100724000022DA6309E0084B00229A63B7F90E301D
:100734005A42054BDA6300E000BF00BF1037BD46E4
:1007440080BD00BF00340140002C014080B500AFE3
:1007540001220349034803F045F800BF80BD00BFF0
:100764003A000020CC00002080B582B000AF0346E0
:10077400FB71F91D4FF6FF730122034802F0A0FF3D
:1007840000BF0837BD4680BDCC00002080B582B0D4
:1007940000AF7860064B1B781846FFF7E5FF01228F
:1007A4000349044803F01EF800BF0837BD4680BD66
:1007B4003A000020CC00002080B582B000AF0C4B82
:1007C4005B690B4A43F001035361094B5B6903F016
:1007D40001037B607B68002200210E2000F0B1FD44
:1007E4000E2000F0CAFD00BF0837BD4680BD00BF23
:1007F4000010024080B588B000AF07F1100300225A
:100804001A605A609A60DA602A4B9B69294A43F05D
:1008140010039361274B9B6903F01003FB60FB6893
:10082400244B9B69234A43F020039361214B9B692A
:1008340003F02003BB60BB681E4B9B691D4A43F059
:10084400080393611B4B9B6903F008037B607B687F
:10085400184B9B69174A43F004039361154B9B693A
:1008640003F004033B603B68002242F2200112487B
:1008740001F03DFB42F220033B6101237B61002335
:10088400BB610223FB6107F1100319460A4801F01A
:1008940083F904233B6100237B610123BB6107F1DE
:1008A40010031946054801F077F900BF2037BD460B
:1008B40080BD00BF00100240001001400014014040
:1008C40080B500AF00F0E0FB00F00FF8FFF792FFF7
:1008D400FFF772FF00F0CCF800F08EF900F006FB91
:1008E400FFF7B8FCFFF7C2FCFCE780B590B000AF9F
:1008F40007F1180328220021184603F0CBFB3B1D07
:1009040000221A605A609A60DA601A610123BB619E
:100914004FF48033FB6100233B620123BB6202235B
:100924007B634FF48033BB634FF4E013FB6307F145
:100934001803184601F00CFB0346002B01D000F00D
:1009440019F80F237B600223BB600023FB604FF484
:1009540080633B6100237B613B1D0221184601F04B
:1009640079FD0346002B01D000F004F800BF4037A6
:10097400BD4680BD80B400AF72B600BF00BFFDE7C6
:1009840080B485B000AF154B9B69144A43F0010352
:100994009361124B9B6903F00103BB60BB680F4B6F
:1009A400DB690E4A43F08053D3610C4BDB6903F0DF
:1009B40080537B607B680A4B5B68FB60FB6823F0B9
:1009C400E063FB60FB6843F00073FB60044AFB6870
:1009D400536000BF1437BD4680BC7047001002400E
:1009E4000000014080B400AF00BFFDE780B400AF59
:1009F40000BFFDE780B400AF00BFFDE780B400AFE7
:100A040000BFFDE780B400AF00BFFDE780B400AFD6
:100A140000BFBD4680BC704780B400AF00BFBD4678
:100A240080BC704780B400AF00BFBD4680BC704737
:100A340080B500AF00F06EFB00BF80BD80B500AF95
:100A4400024800F06DFE00BF80BD00BF1001002011
:100A540080B500AF024802F0F5FE00BF80BD00BFC4
:100A6400CC00002080B400AF00BFBD4680BC7047FE
:100A740080B596B000AF07F1480300221A605A60AF
:100A84009A60DA6007F1400300221A605A6007F1A5
:100A9400240300221A605A609A60DA601A615A616B
:100AA4009A613B1D20220021184603F0F3FA504BB3
:100AB400504A1A604E4B00225A604D4B00229A60F5
:100AC4004B4B40F60F62DA60494B00221A61484BE7
:100AD40000225A61464B80229A61454801F052FE39
:100AE4000346002B01D0FFF745FF4FF48053BB644E
:100AF40007F1480319463E4802F064F80346002B08
:100B040001D0FFF737FF3A4801F08BFE0346002B74
:100B140001D0FFF72FFF00233B6400237B6407F120
:100B240040031946324802F09DFC0346002B01D0D5
:100B3400FFF720FF60237B620023BB620023FB627C
:100B440000233B6300237B630023BB630023FB631D
:100B540007F1240300221946254801F075FF0346D6
:100B6400002B01D0FFF706FF07F1240304221946E6
:100B74001F4801F069FF0346002B01D0FFF7FAFE7E
:100B840007F1240308221946194801F05DFF0346C2
:100B9400002B01D0FFF7EEFE07F124030C221946C7
:100BA400134801F051FF0346002B01D0FFF7E2FE8A
:100BB40000237B600023BB600023FB6000233B61B8
:100BC40000237B614FF40053BB6100233B623B1D58
:100BD4001946074802F0B2FC0346002B01D0FFF788
:100BE400C9FE034800F0FEF800BF5837BD4680BD7B
:100BF4003C000020002C014080B596B000AF07F106
:100C0400480300221A605A609A60DA6007F14003D0
:100C140000221A605A6007F1240300221A605A6005
:100C24009A60DA601A615A619A613B1D20220021A0
:100C3400184603F02FFA504B504A1A604E4B0022CC
:100C44005A604D4B00229A604B4B40F60F62DA60BB
:100C5400494B00221A61484B00225A61464B8022BC
:100C64009A61454801F08EFD0346002B01D0FFF741
:100C740081FE4FF48053BB6407F1480319463E4894
:100C840001F0A0FF0346002B01D0FFF773FE3A48A2
:100C940001F0C7FD0346002B01D0FFF76BFE0023D4
:100CA4003B6400237B6407F140031946324802F099
:100CB400D9FB0346002B01D0FFF75CFE60237B6267
:100CC4000023BB620023FB6200233B6300237B639E
:100CD4000023BB630023FB6307F1240300221946AE
:100CE400254801F0B1FE0346002B01D0FFF742FE78
:100CF40007F12403042219461F4801F0A5FE034608
:100D0400002B01D0FFF736FE07F124030822194611
:100D1400194801F099FE0346002B01D0FFF72AFE83
:100D240007F124030C221946134801F08DFE0346F3
:100D3400002B01D0FFF71EFE00237B600023BB6065
:100D44000023FB6000233B6100237B614FF40053CD
:100D5400BB6100233B623B1D1946074802F0EEFBD2
:100D64000346002B01D0FFF705FE034800F03AF8D4
:100D740000BF5837BD4680BD8400002000340140C8
:100D840080B485B000AF78607B681B68124A9342D8
:100D94000CD1124B9B69114A43F4006393610F4BCE
:100DA4009B6903F40063FB60FB6810E07B681B68CD
:100DB4000B4A93420BD1094B9B69084A43F40053F5
:100DC4009361064B9B6903F40053BB60BB6800BF8F
:100DD4001437BD4680BC7047002C0140001002400F
:100DE4000034014080B58AB000AF786007F1140385
:100DF40000221A605A609A60DA607B681B68344A81
:100E0400934243D1334B9B69324A43F008039361C5
:100E1400304B9B6903F008033B613B692D4B9B6995
:100E24002C4A43F0040393612A4B9B6903F00403A7
:100E3400FB60FB6803237B610223BB6102233B62EB
:100E440007F114031946244800F0A6FE4FF410637A
:100E54007B610223BB6102233B6207F11403194641
:100E64001E4800F099FE1E4B5B687B627B6A23F090
:100E7400C0037B627B6A43F0E0637B627B6A43F07E
:100E840040037B62164A7B6A53601DE07B681B68E3
:100E9400144A934218D10F4B9B690E4A43F0100336
:100EA40093610C4B9B6903F01003BB60BB684FF468
:100EB40070737B610223BB6102233B6207F114035D
:100EC4001946094800F068FE00BF2837BD4680BDBA
:100ED400002C014000100240000C014000080140B9
:100EE40000000140003401400010014080B500AF13
:100EF400114B124A1A60104B4FF4E1325A600E4BF8
:100F040000229A600C4B0022DA600B4B00221A611B
:100F1400094B0C225A61084B00229A61064B0022AD
:100F2400DA61054802F07FFB0346002B01D0FFF78E
:100F340021FD00BF80BD00BFCC000020003801406F
:100F440080B588B000AF786007F1100300221A6002
:100F54005A609A60DA607B681B68334A93425FD1B7
:100F6400324B9B69314A43F4804393612F4B9B6915
:100F740003F48043FB60FB682C4B9B692B4A43F0D2
:100F840004039361294B9B6903F00403BB60BB68B2
:100F94004FF400733B6102237B610323FB6107F180
:100FA40010031946224800F0F7FD4FF480633B61BB
:100FB40000237B610023BB6107F1100319461C4821
:100FC40000F0EAFD1B4B1C4A1A601A4B10225A60AF
:100FD400184B00229A60174B8022DA60154B0022CE
:100FE4001A61144B00225A61124B00229A61114B70
:100FF4000022DA610F4800F0DBF90346002B01D030
:10100400FFF7B8FC7B680B4A5A630A4A7B68536251
:1010140000220021252000F094F9252000F0ADF9EC
:1010240000BF2037BD4680BD00380140001002409B
:101034000008014010010020440002400C480D4902
:101044000D4A002302E0D458C4500433C4188C421F
:10105400F9D30A4A0A4C002301E013600432A24285
:10106400FBD3FFF7FFFC03F01DF8FFF729FC7047E3
:10107400000000201000002038410008100000206B
:1010840058010020FEE7000080B500AF084B1B6844
:10109400074A43F010031360032000F047F90F20C0
:1010A40000F008F8FFF76CFC0023184680BD00BF71
:1010B4000020024080B582B000AF7860124B1A68FD
:1010C400124B1B7819464FF47A73B3FBF1F3B2FB5E
:1010D400F3F3184600F05FF90346002B01D0012317
:1010E4000EE07B680F2B0AD8002279684FF0FF309E
:1010F40000F027F9064A7B681360002300E001230F
:1011040018460837BD4680BD040000200C000020AE
:101114000800002080B400AF054B1B781A46054B2D
:101124001B681344034A136000BFBD4680BC70476C
:101134000C0000205401002080B400AF024B1B6857
:101144001846BD4680BC70475401002080B584B069
:1011540000AF7860FFF7F0FFB8607B68FB60FB6866
:10116400B3F1FF3F05D00A4B1B781A46FB681344C2
:10117400FB6000BFFFF7E0FF0246BB68D31AFA68C2
:101184009A42F7D800BF00BF1037BD4680BD00BFEC
:101194000C00002080B485B000AF78607B6803F059
:1011A4000703FB600C4BDB68BB60BA684FF6FF03B8
:1011B4001340BB60FB681A02BB68134343F0BF6370
:1011C40043F40033BB60044ABB68D36000BF1437E8
:1011D400BD4680BC704700BF00ED00E080B400AFA6
:1011E400044BDB681B0A03F007031846BD4680BCAA
:1011F400704700BF00ED00E080B483B000AF034649
:10120400FB7197F90730002B0BDBFB7903F01F020E
:10121400064997F907305B09012000FA02F241F808
:10122400232000BF0C37BD4680BC704700E100E0BE
:1012340080B483B000AF03463960FB7197F907307F
:10124400002B0ADB3B68DAB20C4997F9073012012C
:10125400D2B20B4483F800230AE03B68DAB20849AF
:10126400FB7903F00F03043B1201D2B20B441A764C
:1012740000BF0C37BD4680BC704700BF00E100E0F2
:1012840000ED00E080B489B000AFF860B9607A6026
:10129400FB6803F00703FB61FB69C3F10703042B3D
:1012A40028BF0423BB61FB690433062B02D9FB6905
:1012B400033B00E000237B614FF0FF32BB6902FA7D
:1012C40003F3DA43BB681A407B699A404FF0FF315D
:1012D4007B6901FA03F3D9437B680B401343184637
:1012E4002437BD4680BC704780B582B000AF7860BB
:1012F4007B68013BB3F1807F01D301230FE00A4AED
:101304007B68013B53600F214FF0FF30FFF790FFE4
:10131400054B00229A60044B07221A6000231846EA
:101324000837BD4680BD00BF10E000E080B582B044
:1013340000AF78607868FFF72DFF00BF0837BD461F
:1013440080BD80B586B000AF0346B9607A60FB7398
:1013540000237B61FFF742FF78617A68B968786996
:10136400FFF790FF024697F90F3011461846FFF732
:101374005FFF00BF1837BD4680BD80B582B000AFA7
:101384000346FB7197F907301846FFF735FF00BF96
:101394000837BD4680BD80B582B000AF78607868FC
:1013A400FFF7A2FF034618460837BD4680BD00007C
:1013B40080B485B000AF78600023FB607B68002BAD
:1013C40001D1012359E07B681B681A462D4B9A42D0
:1013D4000FD87B681B681A462B4B13442B4AA2FB7D
:1013E40003231B099A007B681A647B68284ADA6322
:1013F4000EE07B681B681A46264B1344234AA2FB63
:1014040003231B099A007B681A647B68224ADA6307
:101414007B68022283F821207B681B681B68FB60C1
:10142400FB6823F47F5323F03003FB607B685A6826
:101434007B689B681A437B68DB681A437B681B697B
:101444001A437B685B691A437B689B691A437B6810
:10145400DB691343FA681343FB607B681B68FA6813
:101464001A607B6800229A637B68012283F821203A
:101474007B68002283F82020002318461437BD46D9
:1014840080BC704707040240F8FFFDBFCDCCCCCC34
:1014940000000240F8FBFDBF0004024080B485B0A8
:1014A40000AF78600023FB737B6893F82130022B34
:1014B40008D07B6804229A637B68002283F820208A
:1014C400012320E07B681B681A687B681B6822F094
:1014D4000E021A607B681B681A687B681B6822F01E
:1014E40001021A607B681A6C7B68DB6B012101FACC
:1014F40002F25A607B68012283F821207B68002273
:1015040083F82020FB7B18461437BD4680BC704707
:1015140080B584B000AF78600023FB737B6893F8D8
:101524002130022B05D07B6804229A630123FB73CC
:10153400D6E07B681B681A687B681B6822F00E0281
:101544001A607B681B681A687B681B6822F00102BA
:101554001A607B681B681A46644B9A4258D97B68A8
:101564001B68634A93424FD07B681B68614A93426D
:1015740048D07B681B68604A934240D07B681B68F4
:101584005E4A934238D07B681B685D4A934230D0F0
:101594007B681B685B4A934228D07B681B68534A6C
:1015A400934220D07B681B68574A934219D07B68CA
:1015B4001B68564A934212D07B681B68544A934274
:1015C4000AD07B681B68534A934202D14FF480537C
:1015D4001BE04FF4803318E04FF4807315E01023C0
:1015E40013E0012311E04FF080730EE04FF48013F9
:1015F4000BE04FF4803308E04FF4805305E04FF4E0
:10160400807302E0102300E00123434A536057E053
:101614007B681B68364A93424FD07B681B68354A07
:10162400934248D07B681B68334A934240D07B681E
:101634001B68324A934238D07B681B68304A934215
:1016440030D07B681B682F4A934228D07B681B6884
:10165400264A934220D07B681B682B4A934219D0B8
:101664007B681B68294A934212D07B681B68284A0E
:1016740093420AD07B681B68264A934202D14FF4F6
:1016840080531BE04FF4803318E04FF4807315E06F
:10169400102313E0012311E04FF080730EE04FF4A8
:1016A40080130BE04FF4803308E04FF4805305E0DF
:1016B4004FF4807302E0102300E00123174A5360C3
:1016C4007B68012283F821207B68002283F8202094
:1016D4007B685B6B002B03D07B685B6B78689847F7
:1016E400FB7B18461037BD4680BD00BF800002401A
:1016F400080002401C000240300002404400024046
:10170400580002406C000240080402401C040240DD
:10171400300402404404024000040240000002403D
:1017240080B584B000AF78607B68DB6B1B68FB60BE
:101734007B681B681B68BB607B681B6C04229A4037
:10174400FB681340002B00F0F180BB6803F0040336
:10175400002B00F0EB807B681B681B6803F0200300
:10176400002B07D17B681B681A687B681B6822F012
:1017740004021A607B681B681A465F4B9A4258D968
:101784007B681B685D4A93424FD07B681B685C4A48
:10179400934248D07B681B685A4A934240D07B6886
:1017A4001B68594A934238D07B681B68574A934256
:1017B40030D07B681B68564A934228D07B681B68EC
:1017C4004D4A934220D07B681B68524A934219D0F9
:1017D4007B681B68504A934212D07B681B684F4A4F
:1017E40093420AD07B681B684D4A934202D14FF45E
:1017F40080431BE04FF4802318E04FF4806315E02E
:10180400402313E0042311E04FF080630EE04FF413
:1018140080030BE04FF4802308E04FF4804305E09D
:101824004FF4806302E0402300E004233D4A536008
:1018340057E07B681B68314A93424FD07B681B6832
:101844002F4A934248D07B681B682E4A934240D06B
:101854007B681B682C4A934238D07B681B682B4AF0
:10186400934230D07B681B68294A934228D07B6816
:101874001B68214A934220D07B681B68254A934207
:1018840019D07B681B68244A934212D07B681B687A
:10189400224A93420AD07B681B68214A934202D1B0
:1018A4004FF480431BE04FF4802318E04FF480632F
:1018B40015E0402313E0042311E04FF080630EE0B1
:1018C4004FF480030BE04FF4802308E04FF480438F
:1018D40005E04FF4806302E0402300E00423124A51
:1018E40053607B68DB6A002B00F036817B68DB6A1F
:1018F4007868984730E100BF800002400800024049
:101904001C000240300002404400024058000240E3
:101914006C000240080402401C04024030040240EF
:101924004404024000040240000002407B681B6C37
:1019340002229A40FB681340002B00F0DD80BB6854
:1019440003F00203002B00F0D7807B681B681B6840
:1019540003F02003002B0BD17B681B681A687B689B
:101964001B6822F00A021A607B68012283F8212096
:101974007B681B681A467B4B9A4258D97B681B6864
:10198400794A93424FD07B681B68784A934248D087
:101994007B681B68764A934240D07B681B68754A13
:1019A400934238D07B681B68734A934230D07B687B
:1019B4001B68724A934228D07B681B68694A934229
:1019C40020D07B681B686E4A934219D07B681B68E1
:1019D4006C4A934212D07B681B686B4A93420AD0CC
:1019E4007B681B68694A934202D14FF400531BE0A1
:1019F4004FF4003318E04FF4007315E0202313E094
:101A0400022311E04FF000730EE04FF400130BE0DB
:101A14004FF4003308E04FF4005305E04FF4007333
:101A240002E0202300E00223594A536057E07B6818
:101A34001B684D4A93424FD07B681B684B4A9342C4
:101A440048D07B681B684A4A934240D07B681B6835
:101A5400484A934238D07B681B68474A934230D047
:101A64007B681B68454A934228D07B681B683D4AC3
:101A7400934220D07B681B68414A934219D07B680B
:101A84001B68404A934212D07B681B683E4A9342CB
:101A94000AD07B681B683D4A934202D14FF400533D
:101AA4001BE04FF4003318E04FF4007315E02023DB
:101AB40013E0022311E04FF000730EE04FF4001323
:101AC4000BE04FF4003308E04FF4005305E04FF40B
:101AD400007302E0202300E002232E4A53607B6857
:101AE400002283F820207B689B6A002B34D07B681B
:101AF4009B6A786898472FE07B681B6C08229A40A1
:101B0400FB681340002B28D0BB6803F00803002BAC
:101B140023D07B681B681A687B681B6822F00E025E
:101B24001A607B681A6C7B68DB6B012101FA02F294
:101B34005A607B6801229A637B68012283F8212022
:101B44007B68002283F820207B681B6B002B04D069
:101B54007B681B6B7868984700BF00BF1037BD4691
:101B640080BD00BF80000240080002401C0002400B
:101B74003000024044000240580002406C00024021
:101B8400080402401C0402403004024044040240A1
:101B9400000402400000024080B48BB000AF7860C3
:101BA400396000237B6200233B6279E101227B6A76
:101BB40002FA03F3FB613B681B68FA691340BB61DB
:101BC400BA69FB699A4240F068813B685B68964A4F
:101BD40093425ED0944A934275D8944A934258D023
:101BE400924A93426FD8924A934252D0904A934277
:101BF40069D8904A93424CD08E4A934263D88E4A15
:101C0400934246D08C4A93425DD8122B2AD8122B89
:101C140059D801A252F823F0971C0008711C00083F
:101C2400831C0008C51C0008CB1C0008CB1C000842
:101C3400CB1C0008CB1C0008CB1C0008CB1C0008E4
:101C4400CB1C0008CB1C0008CB1C0008CB1C0008D4
:101C5400CB1C0008CB1C0008CB1C0008791C000816
:101C64008D1C0008754A934213D02CE03B68DB6856
:101C74003B6229E03B68DB6804333B6224E03B6859
:101C8400DB6808333B621FE03B68DB680C333B6274
:101C94001AE03B689B68002B02D104233B6213E0EB
:101CA4003B689B68012B05D108233B627B68FA697A
:101CB4001A6109E008233B627B68FA695A6103E010
:101CC40000233B6200E000BFBB69FF2B01D87B68A7
:101CD40001E07B6804337B61BB69FF2B02D87B6A1C
:101CE4009B0002E07B6A083B9B003B617B691A68AE
:101CF4000F213B6901FA03F3DB431A40396A3B695C
:101D040001FA03F31A437B691A603B685B6803F0CA
:101D14008053002B00F0C180494B9B69484A43F033
:101D240001039361464B9B6903F00103BB60BB68ED
:101D3400444A7B6A9B08023352F82330FB607B6A77
:101D440003F003039B000F2202FA03F3DB43FA6858
:101D54001340FB607B683C4A93421FD07B683B4A3C
:101D6400934219D07B683A4A934213D07B68394A2C
:101D740093420DD07B68384A934207D07B68374A38
:101D8400934201D105230AE0062308E0042306E078
:101D9400032304E0022302E0012300E000237A6A23
:101DA40002F0030292009340FA681343FB60254952
:101DB4007B6A9B080233FA6841F823203B685B681E
:101DC40003F48033002B06D0254B1A682449BB69E1
:101DD40013430B6006E0224B1A68BB69DB432049BE
:101DE40013400B603B685B6803F40033002B06D0A0
:101DF4001B4B5A681A49BB6913434B6006E0184BE6
:101E04005A68BB69DB43164913404B603B685B6807
:101E140003F48013002B25D0114B9A681049BB6939
:101E240013438B6025E000BF000032100000311026
:101E340000002210000021100000121000001110F8
:101E4400001002400000014000080140000C014065
:101E5400001001400014014000180140001C014022
:101E640000040140154B9A68BB69DB4313491340D6
:101E74008B603B685B6803F40013002B06D00F4BA8
:101E8400DA680E49BB691343CB6006E00B4BDA6892
:101E9400BB69DB4309491340CB607B6A01337B6236
:101EA4003B681A687B6A22FA03F3002B7FF47EAE48
:101EB40000BF00BF2C37BD4680BC70470004014002
:101EC40080B485B000AF78600B467B807B689A68ED
:101ED4007B881340002B02D00123FB7301E0002315
:101EE400FB73FB7B18461437BD4680BC704780B437
:101EF40083B000AF78600B467B8013467B707B78A1
:101F0400002B03D07A887B681A6103E07B881A046B
:101F14007B681A6100BF0C37BD4680BC704780B433
:101F240085B000AF78600B467B807B68DB68FB6024
:101F34007A88FB6813401A04FB68D9437B880B40FA
:101F44001A437B681A6100BF1437BD4680BC7047D2
:101F540080B586B000AF78607B68002B01D1012387
:101F640072E27B681B6803F00103002B00F087809A
:101F7400924B5B6803F00C03042B0CD08F4B5B6813
:101F840003F00C03082B12D18C4B5B6803F48033F1
:101F9400B3F5803F0BD1894B1B6803F40033002B4E
:101FA4006CD07B685B68002B68D101234CE27B68B2
:101FB4005B68B3F5803F06D1804B1B687F4A43F4CE
:101FC400803313602EE07B685B68002B0CD17B4B65
:101FD4001B687A4A23F480331360784B1B68774A72
:101FE40023F4802313601DE07B685B68B3F5A02FA6
:101FF4000CD1724B1B68714A43F4802313606F4BFE
:102004001B686E4A43F4803313600BE06B4B1B6810
:102014006A4A23F480331360684B1B68674A23F4CD
:10202400802313607B685B68002B13D0FFF784F870
:10203400386108E0FFF780F802463B69D31A642B45
:1020440001D9032300E25D4B1B6803F40033002B2A
:10205400F0D014E0FFF770F8386108E0FFF76CF88F
:1020640002463B69D31A642B01D90323ECE1534B99
:102074001B6803F40033002BF0D100E000BF7B6841
:102084001B6803F00203002B63D04C4B5B6803F026
:102094000C03002B0BD0494B5B6803F00C03082B9B
:1020A4001CD1464B5B6803F48033002B16D1434BA1
:1020B4001B6803F00203002B05D07B681B69012B0E
:1020C40001D00123C0E13D4B1B6823F0F8027B687B
:1020D4005B69DB00394913430B603AE07B681B6999
:1020E400002B20D0364B01221A60FFF725F8386107
:1020F40008E0FFF721F802463B69D31A022B01D905
:102104000323A1E12D4B1B6803F00203002BF0D045
:102114002A4B1B6823F0F8027B685B69DB002749C4
:1021240013430B6015E0264B00221A60FFF704F8F6
:10213400386108E0FFF700F802463B69D31A022B26
:1021440001D9032380E11D4B1B6803F00203002B1C
:10215400F0D17B681B6803F00803002B3AD07B683E
:102164009B69002B19D0174B01221A60FEF7E4FF7C
:10217400386108E0FEF7E0FF02463B69D31A022B00
:1021840001D9032360E10D4B5B6A03F00203002BCA
:10219400F0D0012000F0D8FA1CE00A4B00221A60AB
:1021A400FEF7CAFF38610FE0FEF7C6FF02463B693F
:1021B400D31A022B08D9032346E100BF00100240C2
:1021C4000000424280044242924B5B6A03F00203E5
:1021D400002BE9D17B681B6803F00403002B00F09B
:1021E400A6800023FB758B4BDB6903F08053002B27
:1021F4000DD1884BDB69874A43F08053D361854B0B
:10220400DB6903F08053BB60BB680123FB75824B21
:102214001B6803F48073002B18D17F4B1B687E4A24
:1022240043F480731360FEF787FF386108E0FEF71C
:1022340083FF02463B69D31A642B01D9032303E1CC
:10224400754B1B6803F48073002BF0D07B68DB684C
:10225400012B06D16F4B1B6A6E4A43F001031362D4
:102264002DE07B68DB68002B0CD16A4B1B6A694A42
:1022740023F001031362674B1B6A664A23F00403CD
:1022840013621CE07B68DB68052B0CD1614B1B6A75
:10229400604A43F0040313625E4B1B6A5D4A43F0D9
:1022A400010313620BE05B4B1B6A5A4A23F00103E0
:1022B4001362584B1B6A574A23F0040313627B686A
:1022C400DB68002B15D0FEF737FF38610AE0FEF714
:1022D40033FF02463B69D31A41F28832934201D953
:1022E4000323B1E04B4B1B6A03F00203002BEED037
:1022F40014E0FEF721FF38610AE0FEF71DFF0246F5
:102304003B69D31A41F28832934201D903239BE0FB
:10231400404B1B6A03F00203002BEED1FB7D012B23
:1023240005D13C4BDB693B4A23F08053D3617B6886
:10233400DB69002B00F08780364B5B6803F00C03ED
:10234400082B61D07B68DB69022B46D1334B00221A
:102354001A60FEF7F1FE386108E0FEF7EDFE024672
:102364003B69D31A022B01D903236DE0294B1B6867
:1023740003F00073002BF0D17B681B6AB3F5803F38
:1023840008D1244B5B6823F400327B689B682149A5
:1023940013434B601F4B5B6823F474127B68196A08
:1023A4007B685B6A0B431B4913434B601B4B012245
:1023B4001A60FEF7C1FE386108E0FEF7BDFE024672
:1023C4003B69D31A022B01D903233DE0114B1B684F
:1023D40003F00073002BF0D035E0104B00221A609C
:1023E400FEF7AAFE386108E0FEF7A6FE02463B6946
:1023F400D31A022B01D9032326E0064B1B6803F0F2
:102404000073002BF0D11EE07B68DB69012B07D140
:10241400012319E0001002400070004060004242B5
:102424000B4B5B68FB60FB6803F480327B681B6AC0
:102434009A4206D1FB6803F470127B685B6A9A4285
:1024440001D0012300E0002318461837BD4680BDA3
:102454000010024080B584B000AF786039607B68BA
:10246400002B01D10123D0E06A4B1B6803F0070362
:102474003A689A4210D9674B1B6823F007026549F2
:102484003B6813430B60634B1B6803F007033A6814
:102494009A4201D00123B8E07B681B6803F0020371
:1024A400002B20D07B681B6803F00403002B05D0AD
:1024B400594B5B68584A43F4E06353607B681B687C
:1024C40003F00803002B05D0534B5B68524A43F4D6
:1024D40060535360504B5B6823F0F0027B689B6849
:1024E4004D4913434B607B681B6803F00103002BC9
:1024F40040D07B685B68012B07D1474B1B6803F412
:102504000033002B15D101237FE07B685B68022B2D
:1025140007D1414B1B6803F00073002B09D1012341
:1025240073E03D4B1B6803F00203002B01D1012330
:102534006BE0394B5B6823F003027B685B683649C8
:1025440013434B60FEF7F8FDF8600AE0FEF7F4FD74
:102554000246FB68D31A41F28832934201D903231D
:1025640053E02D4B5B6803F00C027B685B689B00B7
:102574009A42EBD1274B1B6803F007033A689A424F
:1025840010D2244B1B6823F0070222493B681343F3
:102594000B60204B1B6803F007033A689A4201D092
:1025A400012332E07B681B6803F00403002B08D08E
:1025B400194B5B6823F4E0627B68DB6816491343BC
:1025C4004B607B681B6803F00803002B09D0124B97
:1025D4005B6823F460527B681B69DB000E4913437C
:1025E4004B6000F021F802460B4B5B681B0903F0BB
:1025F4000F030A49CB5C22FA03F3094A1360094B1F
:102604001B681846FEF756FD002318461037BD46D2
:1026140080BD00BF002002400010024018410008A5
:10262400040000200800002090B48AB000AF294BB9
:102634003C1D0FCB84E80F0040F201233B800023B4
:10264400FB610023BB6100237B6200237B610023C9
:102654003B62214B5B68FB61FB6903F00C03042BB9
:1026640002D0082B03D02BE01C4B3B622BE0FB6910
:102674009B0C03F00F0328333B4413F8243C7B6189
:10268400FB6903F48033002B12D0134B5B685B0CA3
:1026940003F0010328333B4413F8283CBB617B69F6
:1026A4000E4A03FB02F2BB69B2FBF3F37B6204E064
:1026B4007B690B4A02FB03F37B627B6A3B6202E0A9
:1026C400064B3B6200BF3B6A18462837BD4690BCA8
:1026D400704700BF084100080010024000127A0051
:1026E40000093D0080B400AF024B1B681846BD468C
:1026F40080BC70470400002080B500AFFFF7F2FFF4
:102704000246054B5B681B0A03F007030349CB5CD5
:1027140022FA03F3184680BD001002402841000845
:1027240080B500AFFFF7DEFF0246054B5B68DB0AAE
:1027340003F007030349CB5C22FA03F3184680BD78
:10274400001002402841000880B485B000AF7860D2
:102754000A4B1B680A4AA2FB03235B0A7A6802FB42
:1027640003F3FB6000BFFB685A1EFA60002BF9D12B
:1027740000BF00BF1437BD4680BC70470400002072
:10278400D34D621080B582B000AF78607B68002BB7
:1027940001D1012341E07B6893F83D30DBB2002B8B
:1027A40006D17B68002283F83C207868FEF7E8FABB
:1027B4007B68022283F83D207B681A687B680433B7
:1027C4001946104600F0C2FA7B68012283F84620BD
:1027D4007B68012283F83E207B68012283F83F2036
:1027E4007B68012283F840207B68012283F8412022
:1027F4007B68012283F842207B68012283F843200E
:102804007B68012283F844207B68012283F84520F9
:102814007B68012283F83D20002318460837BD4613
:1028240080BD80B582B000AF78607B68002B01D199
:10283400012341E07B6893F83D30DBB2002B06D1E5
:102844007B68002283F83C20786800F039F87B68C4
:10285400022283F83D207B681A687B68043319469A
:10286400104600F073FA7B68012283F846207B68E7
:10287400012283F83E207B68012283F83F207B6895
:10288400012283F840207B68012283F841207B6881
:10289400012283F842207B68012283F843207B686D
:1028A400012283F844207B68012283F845207B6859
:1028B400012283F83D20002318460837BD4680BD19
:1028C40080B483B000AF786000BF0C37BD4680BCD5
:1028D4007047000080B584B000AF786039603B6811
:1028E400002B09D17B6893F83E30DBB2012B14BF77
:1028F40001230023DBB222E03B68042B09D17B686F
:1029040093F83F30DBB2012B14BF01230023DBB269
:1029140015E03B68082B09D17B6893F84030DBB2A3
:10292400012B14BF01230023DBB208E07B6893F87A
:102934004130DBB2012B14BF01230023DBB2002B97
:1029440001D0012372E03B68002B04D17B68022292
:1029540083F83E2013E03B68042B04D17B680222F9
:1029640083F83F200BE03B68082B04D17B680222EC
:1029740083F8402003E07B68022283F841207B68CF
:102984001B6801223968184600F09CFC7B681B68B0
:10299400284A934204D07B681B68274A934201D19A
:1029A400012300E00023002B07D07B681B685A6CCE
:1029B4007B681B6842F400425A647B681B681D4AAA
:1029C400934218D07B681B681B4A934213D07B68E0
:1029D4001B68B3F1804F0ED07B681B68174A934283
:1029E40009D07B681B68164A934204D07B681B6835
:1029F400144A934211D17B681B689B6803F0070358
:102A0400FB60FB68062B10D07B681B681A687B6828
:102A14001B6842F001021A6007E07B681B681A68B1
:102A24007B681B6842F001021A60002318461037C5
:102A3400BD4680BD002C014000340140000400402C
:102A440000080040000C004080B584B000AFF8607E
:102A5400B9607A60FB6893F83C30012B01D1022302
:102A6400ACE0FB68012283F83C207B680C2B00F26D
:102A74009F8001A252F823F0B12A0008B52B000868
:102A8400B52B0008B52B0008F12A0008B52B000867
:102A9400B52B0008B52B0008332B0008B52B000814
:102AA400B52B0008B52B0008732B0008FB681B68C6
:102AB400B968184600F0C4F9FB681B689A69FB689A
:102AC4001B6842F008029A61FB681B689A69FB68FC
:102AD4001B6822F004029A61FB681B689969BB6851
:102AE4001A69FB681B680A439A6162E0FB681B6809
:102AF400B968184600F014FAFB681B689A69FB6809
:102B04001B6842F400629A61FB681B689A69FB685F
:102B14001B6822F480629A61FB681B689969BB6830
:102B24001B691A02FB681B680A439A6141E0FB684F
:102B34001B68B968184600F067FAFB681B68DA6915
:102B4400FB681B6842F00802DA61FB681B68DA69FB
:102B5400FB681B6822F00402DA61FB681B68D96910
:102B6400BB681A69FB681B680A43DA6121E0FB68E9
:102B74001B68B968184600F0BBFAFB681B68DA6981
:102B8400FB681B6842F40062DA61FB681B68DA695F
:102B9400FB681B6822F48062DA61FB681B68D969F0
:102BA400BB681B691A02FB681B680A43DA6100E010
:102BB40000BFFB68002283F83C200023184610372E
:102BC400BD4680BD80B584B000AF786039607B6855
:102BD40093F83C30012B01D10223B3E07B6801223E
:102BE40083F83C207B68022283F83D207B681B68C5
:102BF4009B68FB60FB6823F07703FB60FB6823F4AE
:102C04007F43FB607B681B68FA689A603B681B68BB
:102C1400B3F5005F3ED0B3F5005F00F28780B3F5F3
:102C2400805F00F08580B3F5805F7FD8702B1AD069
:102C3400702B7BD8602B50D0602B77D8502B3CD096
:102C4400502B73D8402B58D0402B6FD8302B64D0E6
:102C5400302B6BD8202B60D0202B67D8002B5CD076
:102C6400102B5AD062E07B6818683B6899683B680F
:102C74005A683B68DB6800F006FB7B681B689B684E
:102C8400FB60FB6843F07703FB607B681B68FA68B2
:102C94009A604EE07B6818683B6899683B685A689C
:102CA4003B68DB6800F0EFFA7B681B689A687B6816
:102CB4001B6842F480429A603BE07B6818683B687A
:102CC40059683B68DB681A4600F066FA7B681B6843
:102CD4005021184600F0BDFA2BE07B6818683B6869
:102CE40059683B68DB681A4600F084FA7B681B6805
:102CF4006021184600F0ADFA1BE07B6818683B6859
:102D040059683B68DB681A4600F046FA7B681B6822
:102D14004021184600F09DFA0BE07B681A683B6876
:102D24001B681946104600F094FA02E000BF00E068
:102D340000BF7B68012283F83D207B68002283F872
:102D44003C20002318461037BD4680BD80B485B0B2
:102D540000AF786039607B681B68FB607B68334A2E
:102D6400934213D07B68324A93420FD07B68B3F10D
:102D7400804F0BD07B682F4A934207D07B682E4A42
:102D8400934203D07B682D4A934208D1FB6823F019
:102D94007003FB603B685B68FA681343FB607B6805
:102DA400224A934213D07B68214A93420FD07B6816
:102DB400B3F1804F0BD07B681E4A934207D07B68E7
:102DC4001D4A934203D07B681C4A934208D1FB6896
:102DD40023F44073FB603B68DB68FA681343FB60D1
:102DE400FB6823F080023B685B691343FB607B68EC
:102DF400FA681A603B689A687B68DA623B681A680A
:102E04007B689A627B68094A934203D07B68084ACC
:102E1400934203D13B681A697B681A637B68012279
:102E24005A6100BF1437BD4680BC7047002C014076
:102E3400003401400004004000080040000C004041
:102E440080B487B000AF786039607B681B6A23F078
:102E540001027B681A627B681B6A7B617B685B6822
:102E64003B617B689B69FB60FB6823F07003FB603C
:102E7400FB6823F00303FB603B681B68FA68134399
:102E8400FB607B6923F002037B613B689B687A6982
:102E940013437B617B68204A934203D07B681F4ABB
:102EA40093420CD17B6923F008037B613B68DB68A8
:102EB4007A6913437B617B6923F004037B617B683C
:102EC400154A934203D07B68144A934211D13B695B
:102ED40023F480733B613B6923F400733B613B68DB
:102EE4005B693A6913433B613B689B693A691343E5
:102EF4003B617B683A695A607B68FA689A613B680F
:102F04005A687B685A637B687A691A6200BF1C3707
:102F1400BD4680BC704700BF002C01400034014016
:102F240080B487B000AF786039607B681B6A23F097
:102F340010027B681A627B681B6A7B617B685B6832
:102F44003B617B689B69FB60FB6823F4E043FB60A7
:102F5400FB6823F44073FB603B681B681B02FA6840
:102F64001343FB607B6923F020037B613B689B6810
:102F74001B017A6913437B617B68214A934203D026
:102F84007B68204A93420DD17B6923F080037B61E7
:102F94003B68DB681B017A6913437B617B6923F01F
:102FA40040037B617B68164A934203D07B68154AD1
:102FB400934213D13B6923F480633B613B6923F45F
:102FC40000633B613B685B699B003A6913433B6167
:102FD4003B689B699B003A6913433B617B683A6990
:102FE4005A607B68FA689A613B685A687B689A639E
:102FF4007B687A691A6200BF1C37BD4680BC704783
:10300400002C01400034014080B487B000AF7860E8
:1030140039607B681B6A23F480727B681A627B6860
:103024001B6A7B617B685B683B617B68DB69FB6077
:10303400FB6823F07003FB60FB6823F00303FB6071
:103044003B681B68FA681343FB607B6923F40073D5
:103054007B613B689B681B027A6913437B617B68D5
:10306400214A934203D07B68204A93420DD17B6965
:1030740023F400637B613B68DB681B027A691343BA
:103084007B617B6923F480637B617B68164A93428E
:1030940003D07B68154A934213D13B6923F48053D0
:1030A4003B613B6923F400533B613B685B691B0153
:1030B4003A6913433B613B689B691B013A691343BB
:1030C4003B617B683A695A607B68FA68DA613B68FD
:1030D4005A687B68DA637B687A691A6200BF1C37B6
:1030E400BD4680BC704700BF002C01400034014045
:1030F40080B487B000AF786039607B681B6A23F4C2
:1031040080527B681A627B681B6A3B617B685B68E0
:103114007B617B68DB69FB60FB6823F4E043FB6055
:10312400FB6823F44073FB603B681B681B02FA686E
:103134001343FB603B6923F400533B613B689B688A
:103144001B033A6913433B617B68114A934203D0E2
:103154007B68104A934209D17B6923F480437B61E5
:103164003B685B699B017A6913437B617B687A697D
:103174005A607B68FA68DA613B685A687B681A644B
:103184007B683A691A6200BF1C37BD4680BC704731
:10319400002C01400034014080B487B000AFF860D7
:1031A400B9607A60FB681B6A7B61FB681B6A23F069
:1031B4000102FB681A62FB689B693B613B6923F06F
:1031C400F0033B617B681B013A6913433B617B69F4
:1031D40023F00A037B617A69BB6813437B61FB6854
:1031E4003A699A61FB687A691A6200BF1C37BD4666
:1031F40080BC704780B487B000AFF860B9607A6073
:10320400FB681B6A23F01002FB681A62FB689B6967
:103214007B61FB681B6A3B617B6923F470437B61C0
:103224007B681B037A6913437B613B6923F0A0032A
:103234003B61BB681B013A6913433B61FB687A69D4
:103244009A61FB683A691A6200BF1C37BD4680BCAC
:10325400704780B485B000AF786039607B689B6844
:10326400FB60FB6823F07003FB603A68FB68134360
:1032740043F00703FB607B68FA689A6000BF143769
:10328400BD4680BC704780B487B000AFF860B960B9
:103294007A603B60FB689B687B617B6923F47F43B6
:1032A4007B613B681A027B681A43BB6813437A69E3
:1032B40013437B61FB687A699A6000BF1C37BD4683
:1032C40080BC704780B487B000AFF860B9607A60A2
:1032D400BB6803F01F03012202FA03F37B61FB685E
:1032E4001A6A7B69DB431A40FB681A62FB681A6A34
:1032F400BB6803F01F03796801FA03F31A43FB6800
:103304001A6200BF1C37BD4680BC704780B584B0CC
:1033140000AF786039603B68002B09D17B6893F873
:103324004230DBB2012B14BF01230023DBB222E0C5
:103334003B68042B09D17B6893F84330DBB2012B43
:1033440014BF01230023DBB215E03B68082B09D12D
:103354007B6893F84430DBB2012B14BF01230023B4
:10336400DBB208E07B6893F84530DBB2012B14BF75
:1033740001230023DBB2002B01D0012363E03B686F
:10338400002B04D17B68022283F8422013E03B68BF
:10339400042B04D17B68022283F843200BE03B68B2
:1033A400082B04D17B68022283F8442003E07B6865
:1033B400022283F845207B681B680422396818467A
:1033C40000F00DF97B681B685A6C7B681B6842F43B
:1033D40000425A647B681B681D4A934218D07B687C
:1033E4001B681C4A934213D07B681B68B3F1804F5F
:1033F4000ED07B681B68184A934209D07B681B680F
:10340400164A934204D07B681B68154A934211D133
:103414007B681B689B6803F00703FB60FB68062B53
:1034240010D07B681B681A687B681B6842F0010235
:103434001A6007E07B681B681A687B681B6842F0A7
:1034440001021A60002318461037BD4680BD00BF34
:10345400002C0140003401400004004000080040FA
:10346400000C004080B485B000AF786039607B68A0
:1034740093F83C30012B01D1022350E07B680122F8
:1034840083F83C207B68022283F83D207B681B681C
:103494005B68FB607B681B689B68BB60FB6823F010
:1034A4007003FB603B681B68FA681343FB607B682E
:1034B4001B68FA685A607B681B681B4A934218D0E1
:1034C4007B681B68194A934213D07B681B68B3F16D
:1034D400804F0ED07B681B68154A934209D07B68E5
:1034E4001B68144A934204D07B681B68124A9342B7
:1034F4000CD1BB6823F08003BB603B685B68BA688F
:103504001343BB607B681B68BA689A607B680122BE
:1035140083F83D207B68002283F83C200023184672
:103524001437BD4680BC7047002C01400034014074
:103534000004004000080040000C004080B485B046
:1035440000AF786039600023FB607B6893F83C30FF
:10355400012B01D102233DE07B68012283F83C204A
:10356400FB6823F0FF023B68DB681343FB60FB68E6
:1035740023F440723B689B681343FB60FB6823F4AD
:1035840080623B685B681343FB60FB6823F4006262
:103594003B681B681343FB60FB6823F480523B6861
:1035A4001B691343FB60FB6823F400523B685B69AF
:1035B4001343FB60FB6823F480423B68DB691343DD
:1035C400FB607B681B68FA685A647B68002283F896
:1035D4003C20002318461437BD4680BC704780B495
:1035E40087B000AFF860B9607A60BB6803F01F036E
:1035F400042202FA03F37B61FB681A6A7B69DB43EA
:103604001A40FB681A62FB681A6ABB6803F01F035E
:10361400796801FA03F31A43FB681A6200BF1C3786
:10362400BD4680BC704780B582B000AF78607B68CF
:10363400002B01D101233FE07B6893F83D30DBB2DE
:10364400002B06D17B68002283F83C207868FDF7C4
:1036540077FC7B68242283F83D207B681B68DA684A
:103664007B681B6822F40052DA60786800F084FCFE
:103674007B681B681A697B681B6822F490421A6194
:103684007B681B685A697B681B6822F02A025A61AE
:103694007B681B68DA687B681B6842F40052DA6056
:1036A4007B6800221A647B68202283F83D207B68B3
:1036B400202283F83E20002318460837BD4680BDEB
:1036C40080B58AB002AFF860B9603B601346FB80F6
:1036D40000237B61FB6893F83D30DBB2202B7CD167
:1036E400BB68002B02D0FB88002B01D1012375E0BD
:1036F400FB6893F83C30012B01D102236EE0FB6898
:10370400012283F83C20FB6800221A64FB68212212
:1037140083F83D20FDF710FD7861FB68FA889A84F0
:10372400FB68FA88DA84FB689B68B3F5805F08D18C
:10373400FB681B69002B04D10023FB61BB68BB61E0
:1037440003E0BB68FB610023BB61FB68002283F8D4
:103754003C202AE03B6800937B6900228021F868C2
:1037640000F037FA0346002B01D0032336E0FB694F
:10377400002B0BD1BB691B881A46FB681B68C2F37C
:1037840008025A60BB690233BB6107E0FB691A781F
:10379400FB681B685A60FB690133FB61FB68DB8CC7
:1037A4009BB2013B9AB2FB68DA84FB68DB8C9BB268
:1037B400002BCFD13B6800937B6900224021F8683D
:1037C40000F007FA0346002B01D0032306E0FB6850
:1037D400202283F83D20002300E0022318462037EE
:1037E400BD4680BD80B584B000AFF860B9601346B3
:1037F400FB80FB6893F83E30DBB2202B1DD1BB6805
:10380400002B02D0FB88002B01D1012316E0FB68BA
:1038140093F83C30012B01D102230FE0FB68012215
:1038240083F83C20FB6800221A63FB881A46B968B7
:10383400F86800F018FA034600E00223184610372F
:10384400BD4680BD80B58AB000AF78607B681B68D8
:103854001B687B627B681B68DB683B627B681B6858
:103864005B69FB610023BB6100237B617B6A03F01E
:103874000F03BB61BB69002B0DD17B6A03F02003EE
:10388400002B08D03B6A03F02003002B03D0786898
:1038940000F0C9FA7BE1BB69002B00F0B180FB6941
:1038A40003F00103002B05D13B6A03F49073002B52
:1038B40000F0A6807B6A03F00103002B0AD03B6A68
:1038C40003F48073002B05D07B681B6C43F001026A
:1038D4007B681A647B6A03F00403002B0AD0FB693B
:1038E40003F00103002B05D07B681B6C43F002023C
:1038F4007B681A647B6A03F00203002B0AD0FB691D
:1039040003F00103002B05D07B681B6C43F0040219
:103914007B681A647B6A03F00803002B0FD03B6AB0
:1039240003F02003002B04D1FB6903F00103002BF7
:1039340005D07B681B6C43F008027B681A647B68C3
:103944001B6C002B00F01E817B6A03F02003002B0C
:1039540007D03B6A03F02003002B02D0786800F004
:1039640062FA7B681B685B6903F04003002B14BF99
:1039740001230023DBB27B617B681B6C03F008032B
:10398400002B02D17B69002B31D0786800F0A4F9B8
:103994007B681B685B6903F04003002B23D07B68C2
:1039A4001B685A697B681B6822F040025A617B6875
:1039B4009B6B002B13D07B689B6B764A5A637B68A6
:1039C4009B6B1846FDF7A4FD0346002B16D07B68BD
:1039D4009B6B5B6B7A68926B104698470EE0786835
:1039E40000F0E3F80AE0786800F0DFF806E07868B1
:1039F40000F0DBF87B6800221A64C3E000BFC1E07A
:103A04007B681B6B012B40F0A1807B6A03F01003E1
:103A1400002B00F09B803B6A03F01003002B00F0A6
:103A240095800023FB607B681B681B68FB607B68D8
:103A34001B685B68FB60FB687B681B685B6903F061
:103A44004003002B4ED07B689B6B1B685B683B82FA
:103A54003B8A002B00F098807B689B8D3A8A9A42BF
:103A640080F092807B683A8ADA857B689B6B9B69DD
:103A7400202B2BD07B681B68DA687B681B6822F4D8
:103A84008072DA607B681B685A697B681B6822F065
:103A940001025A617B681B685A697B681B6822F0C3
:103AA40040025A617B68202283F83E207B68002212
:103AB4001A637B681B68DA687B681B6822F0100253
:103AC400DA607B689B6B1846FDF7E8FC7B689A8D8F
:103AD4007B68DB8D9BB2D31A9BB21946786800F0E1
:103AE4006DF851E07B689A8D7B68DB8D9BB2D31AAD
:103AF4007B827B68DB8D9BB2002B47D07B8A002BBB
:103B040044D07B681B68DA687B681B6822F4907277
:103B1400DA607B681B685A697B681B6822F00102C3
:103B24005A617B68202283F83E207B6800221A6356
:103B34007B681B68DA687B681B6822F01002DA6015
:103B44007B8A1946786800F039F81FE07B6A03F035
:103B54008003002B08D03B6A03F08003002B03D0C2
:103B6400786800F0F9F812E07B6A03F04003002B58
:103B74000DD03B6A03F04003002B08D0786800F0B6
:103B84003AF904E000BF02E000BF00E000BF2837BC
:103B9400BD4680BD353D000880B483B000AF786079
:103BA40000BF0C37BD4680BC704780B483B000AF03
:103BB400786000BF0C37BD4680BC704780B483B0CA
:103BC40000AF78600B467B8000BF0C37BD4680BCDD
:103BD400704780B584B000AFF860B9603B601346AD
:103BE400FB712CE0BB69B3F1FF3F28D0BB69002B0C
:103BF40007D0FDF7A1FA02463B68D31ABA699A4284
:103C04001DD2FB681B68DA68FB681B6822F4D0725B
:103C1400DA60FB681B685A69FB681B6822F00102C2
:103C24005A61FB68202283F83D20FB68202283F838
:103C34003E20FB68002283F83C2003230FE0FB684E
:103C44001B681A68BB681340BA689A420CBF012308
:103C54000023DBB21A46FB799A42C3D000231846EC
:103C64001037BD4680BD80B485B000AFF860B96040
:103C74001346FB80FB68BA689A62FB68FA889A85E7
:103C8400FB68FA88DA85FB6800221A64FB68222242
:103C940083F83E20FB68002283F83C20FB681B6805
:103CA400DA68FB681B6842F48072DA60FB681B68A0
:103CB4005A69FB681B6842F001025A61FB681B6881
:103CC400DA68FB681B6842F02002DA6000231846B9
:103CD4001437BD4680BC704780B483B000AF7860B1
:103CE4007B681B68DA687B681B6822F49072DA6070
:103CF4007B681B685A697B681B6822F001025A6161
:103D04007B681B6B012B07D17B681B68DA687B68B7
:103D14001B6822F01002DA607B68202283F83E20C0
:103D24007B6800221A6300BF0C37BD4680BC704715
:103D340080B584B000AF78607B685B6AFB60FB6829
:103D44000022DA85FB680022DA84F868FFF72DFF89
:103D540000BF1037BD4680BD80B485B000AF786029
:103D64007B6893F83D30DBB2212B3ED17B689B68A6
:103D7400B3F5805F14D17B681B69002B10D17B687D
:103D84001B6AFB60FB681B881A467B681B68C2F3CE
:103D940008025A607B681B6A9A1C7B681A6208E0F6
:103DA4007B681B6A591C7A6811621A787B681B68E5
:103DB4005A607B68DB8C9BB2013B9BB27A681946E4
:103DC400D184002B0FD17B681B68DA687B681B6881
:103DD40022F08002DA607B681B68DA687B681B6803
:103DE40042F04002DA60002300E002231846143750
:103DF400BD4680BC704780B582B000AF78607B68F8
:103E04001B68DA687B681B6822F04002DA607B6812
:103E1400202283F83D207868FFF7BEFE0023184671
:103E24000837BD4680BD80B586B000AF78607B683A
:103E340093F83E30DBB2222B40F099807B689B687C
:103E4400B3F5805F17D17B681B69002B13D1002366
:103E54007B617B689B6A3B617B681B685B689BB288
:103E6400C3F308039AB23B691A807B689B6A9A1C65
:103E74007B689A6226E07B689B6A7B6100233B61D6
:103E84007B689B68B3F5805F07D07B689B68002BD9
:103E94000AD17B681B69002B06D17B681B685B68B1
:103EA400DAB27B691A7008E07B681B685B68DBB276
:103EB40003F07F03DAB27B691A707B689B6A5A1C31
:103EC4007B689A627B68DB8D9BB2013B9BB27A680C
:103ED4001946D185002B48D17B681B68DA687B685A
:103EE4001B6822F02002DA607B681B68DA687B6852
:103EF4001B6822F48072DA607B681B685A697B68ED
:103F04001B6822F001025A617B68202283F83E205C
:103F14007B681B6B012B23D17B6800221A637B68AF
:103F24001B68DA687B681B6822F01002DA607B6821
:103F34001B681B6803F01003102B0AD10023FB60DD
:103F44007B681B681B68FB607B681B685B68FB60A5
:103F5400FB687B689B8D19467868FFF72FFE02E0AB
:103F64007868FCF713FC002302E0002300E002233E
:103F740018461837BD4680BD80B584B000AF786060
:103F84007B681B681B6923F440517B68DA687B6893
:103F94001B680A431A617B689A687B681B691A4329
:103FA4007B685B691343BB607B681B68DB6823F435
:103FB400B05323F00C037A681268B9680B43D360DA
:103FC4007B681B685B6923F440717B689A697B6832
:103FD4001B680A435A617B681B682C4A934203D1CD
:103FE400FEF79EFBF86002E0FEF786FBF860FA68D5
:103FF40013469B0013449A001A447B685B689B0039
:10400400B2FBF3F3224AA2FB03235B091901FA680A
:1040140013469B0013449A001A447B685B689B0018
:10402400B2FBF3F21A4BA3FB02035B09642000FB0F
:1040340003F3D31A1B013233154AA2FB03235B0992
:1040440003F0F0031944FA6813469B0013449A00E2
:104054001A447B685B689B00B2FBF3F20C4BA3FB36
:1040640002035B09642000FB03F3D31A1B01323300
:10407400074AA2FB03235B0903F00F027B681B685A
:104084000A449A6000BF1037BD4680BD0038014025
:104094001F85EB5103460244934200D1704703F855
:1040A400011BF9E770B500260C4D0D4C641BA410E0
:1040B400A64209D100F01AF800260A4D0A4C641BE6
:1040C400A410A64205D170BD55F8043B98470136AB
:1040D400EEE755F8043B98470136F2E73041000813
:1040E400304100083041000834410008F8B500BFF1
:1040F400F8BC08BC9E467047F8B500BFF8BC08BCC5
:044104009E4670471C
:1041080002030405060708090A0B0C0D0E0F101010
:10411800000000000000000001020304060708096F
:08412800000000000102030485
:044130000902000878
:04413400E501000899
:10413800610000000024F4001000000001000000ED
:04000005080010419E
:00000001FF
